{
  "_format": "hh-sol-artifact-1",
  "contractName": "StreamFlow",
  "sourceName": "contracts/StreamFlow.sol",
  "abi": [
    {
      "inputs": [
        {
          "internalType": "address",
          "name": "owner",
          "type": "address"
        },
        {
          "internalType": "contract ISuperfluid",
          "name": "host",
          "type": "address"
        },
        {
          "internalType": "contract IConstantFlowAgreementV1",
          "name": "cfa",
          "type": "address"
        },
        {
          "internalType": "contract ISuperToken",
          "name": "acceptedToken",
          "type": "address"
        }
      ],
      "stateMutability": "nonpayable",
      "type": "constructor"
    },
    {
      "anonymous": false,
      "inputs": [
        {
          "indexed": true,
          "internalType": "address",
          "name": "from",
          "type": "address"
        },
        {
          "indexed": false,
          "internalType": "uint256",
          "name": "quesId",
          "type": "uint256"
        },
        {
          "indexed": false,
          "internalType": "string",
          "name": "heading",
          "type": "string"
        },
        {
          "indexed": false,
          "internalType": "string",
          "name": "description",
          "type": "string"
        }
      ],
      "name": "NewDoubt",
      "type": "event"
    },
    {
      "anonymous": false,
      "inputs": [
        {
          "indexed": true,
          "internalType": "address",
          "name": "from",
          "type": "address"
        },
        {
          "indexed": false,
          "internalType": "uint256",
          "name": "answerid",
          "type": "uint256"
        },
        {
          "indexed": false,
          "internalType": "uint256",
          "name": "quesid",
          "type": "uint256"
        },
        {
          "indexed": false,
          "internalType": "string",
          "name": "ans",
          "type": "string"
        },
        {
          "indexed": false,
          "internalType": "uint256",
          "name": "upvotes",
          "type": "uint256"
        }
      ],
      "name": "NewUpdateAnswer",
      "type": "event"
    },
    {
      "anonymous": false,
      "inputs": [
        {
          "indexed": false,
          "internalType": "address",
          "name": "receiver",
          "type": "address"
        }
      ],
      "name": "ReceiverChanged",
      "type": "event"
    },
    {
      "inputs": [
        {
          "internalType": "contract ISuperToken",
          "name": "_superToken",
          "type": "address"
        },
        {
          "internalType": "address",
          "name": "_agreementClass",
          "type": "address"
        },
        {
          "internalType": "bytes32",
          "name": "",
          "type": "bytes32"
        },
        {
          "internalType": "bytes",
          "name": "",
          "type": "bytes"
        },
        {
          "internalType": "bytes",
          "name": "",
          "type": "bytes"
        },
        {
          "internalType": "bytes",
          "name": "_ctx",
          "type": "bytes"
        }
      ],
      "name": "afterAgreementCreated",
      "outputs": [
        {
          "internalType": "bytes",
          "name": "newCtx",
          "type": "bytes"
        }
      ],
      "stateMutability": "nonpayable",
      "type": "function"
    },
    {
      "inputs": [
        {
          "internalType": "contract ISuperToken",
          "name": "_superToken",
          "type": "address"
        },
        {
          "internalType": "address",
          "name": "_agreementClass",
          "type": "address"
        },
        {
          "internalType": "bytes32",
          "name": "",
          "type": "bytes32"
        },
        {
          "internalType": "bytes",
          "name": "",
          "type": "bytes"
        },
        {
          "internalType": "bytes",
          "name": "",
          "type": "bytes"
        },
        {
          "internalType": "bytes",
          "name": "_ctx",
          "type": "bytes"
        }
      ],
      "name": "afterAgreementTerminated",
      "outputs": [
        {
          "internalType": "bytes",
          "name": "newCtx",
          "type": "bytes"
        }
      ],
      "stateMutability": "nonpayable",
      "type": "function"
    },
    {
      "inputs": [
        {
          "internalType": "contract ISuperToken",
          "name": "_superToken",
          "type": "address"
        },
        {
          "internalType": "address",
          "name": "_agreementClass",
          "type": "address"
        },
        {
          "internalType": "bytes32",
          "name": "",
          "type": "bytes32"
        },
        {
          "internalType": "bytes",
          "name": "agreementData",
          "type": "bytes"
        },
        {
          "internalType": "bytes",
          "name": "",
          "type": "bytes"
        },
        {
          "internalType": "bytes",
          "name": "_ctx",
          "type": "bytes"
        }
      ],
      "name": "afterAgreementUpdated",
      "outputs": [
        {
          "internalType": "bytes",
          "name": "newCtx",
          "type": "bytes"
        }
      ],
      "stateMutability": "nonpayable",
      "type": "function"
    },
    {
      "inputs": [
        {
          "internalType": "string",
          "name": "answer",
          "type": "string"
        },
        {
          "internalType": "uint256",
          "name": "qId",
          "type": "uint256"
        }
      ],
      "name": "answerDoubt",
      "outputs": [],
      "stateMutability": "nonpayable",
      "type": "function"
    },
    {
      "inputs": [
        {
          "internalType": "contract ISuperToken",
          "name": "",
          "type": "address"
        },
        {
          "internalType": "address",
          "name": "",
          "type": "address"
        },
        {
          "internalType": "bytes32",
          "name": "",
          "type": "bytes32"
        },
        {
          "internalType": "bytes",
          "name": "",
          "type": "bytes"
        },
        {
          "internalType": "bytes",
          "name": "",
          "type": "bytes"
        }
      ],
      "name": "beforeAgreementCreated",
      "outputs": [
        {
          "internalType": "bytes",
          "name": "",
          "type": "bytes"
        }
      ],
      "stateMutability": "view",
      "type": "function"
    },
    {
      "inputs": [
        {
          "internalType": "contract ISuperToken",
          "name": "",
          "type": "address"
        },
        {
          "internalType": "address",
          "name": "",
          "type": "address"
        },
        {
          "internalType": "bytes32",
          "name": "",
          "type": "bytes32"
        },
        {
          "internalType": "bytes",
          "name": "",
          "type": "bytes"
        },
        {
          "internalType": "bytes",
          "name": "",
          "type": "bytes"
        }
      ],
      "name": "beforeAgreementTerminated",
      "outputs": [
        {
          "internalType": "bytes",
          "name": "",
          "type": "bytes"
        }
      ],
      "stateMutability": "view",
      "type": "function"
    },
    {
      "inputs": [
        {
          "internalType": "contract ISuperToken",
          "name": "",
          "type": "address"
        },
        {
          "internalType": "address",
          "name": "",
          "type": "address"
        },
        {
          "internalType": "bytes32",
          "name": "",
          "type": "bytes32"
        },
        {
          "internalType": "bytes",
          "name": "",
          "type": "bytes"
        },
        {
          "internalType": "bytes",
          "name": "",
          "type": "bytes"
        }
      ],
      "name": "beforeAgreementUpdated",
      "outputs": [
        {
          "internalType": "bytes",
          "name": "",
          "type": "bytes"
        }
      ],
      "stateMutability": "view",
      "type": "function"
    },
    {
      "inputs": [],
      "name": "cfaV1",
      "outputs": [
        {
          "internalType": "contract ISuperfluid",
          "name": "host",
          "type": "address"
        },
        {
          "internalType": "contract IConstantFlowAgreementV1",
          "name": "cfa",
          "type": "address"
        }
      ],
      "stateMutability": "view",
      "type": "function"
    },
    {
      "inputs": [],
      "name": "currentReceiver",
      "outputs": [
        {
          "internalType": "uint256",
          "name": "startTime",
          "type": "uint256"
        },
        {
          "internalType": "address",
          "name": "receiver",
          "type": "address"
        },
        {
          "internalType": "int96",
          "name": "flowRate",
          "type": "int96"
        }
      ],
      "stateMutability": "view",
      "type": "function"
    },
    {
      "inputs": [
        {
          "internalType": "address",
          "name": "account",
          "type": "address"
        }
      ],
      "name": "getFlowToSpecificAccount",
      "outputs": [
        {
          "internalType": "int96",
          "name": "",
          "type": "int96"
        }
      ],
      "stateMutability": "view",
      "type": "function"
    },
    {
      "inputs": [],
      "name": "getNetFlowFromContract",
      "outputs": [
        {
          "internalType": "int96",
          "name": "",
          "type": "int96"
        }
      ],
      "stateMutability": "view",
      "type": "function"
    },
    {
      "inputs": [
        {
          "internalType": "uint256",
          "name": "_index",
          "type": "uint256"
        }
      ],
      "name": "readAnsS",
      "outputs": [
        {
          "components": [
            {
              "internalType": "string",
              "name": "ans",
              "type": "string"
            },
            {
              "internalType": "address",
              "name": "answerer",
              "type": "address"
            },
            {
              "internalType": "uint256",
              "name": "upvotes",
              "type": "uint256"
            },
            {
              "internalType": "uint256",
              "name": "ansId",
              "type": "uint256"
            }
          ],
          "internalType": "struct StreamFlow.Answer[]",
          "name": "",
          "type": "tuple[]"
        }
      ],
      "stateMutability": "view",
      "type": "function"
    },
    {
      "inputs": [],
      "name": "readDoubts",
      "outputs": [
        {
          "components": [
            {
              "internalType": "address payable",
              "name": "posterAddress",
              "type": "address"
            },
            {
              "internalType": "uint256",
              "name": "quesId",
              "type": "uint256"
            },
            {
              "internalType": "string",
              "name": "heading",
              "type": "string"
            },
            {
              "internalType": "string",
              "name": "description",
              "type": "string"
            },
            {
              "internalType": "int96",
              "name": "bounty",
              "type": "int96"
            },
            {
              "internalType": "uint256",
              "name": "timeOfPosting",
              "type": "uint256"
            },
            {
              "internalType": "uint256",
              "name": "dueDate",
              "type": "uint256"
            },
            {
              "internalType": "int256",
              "name": "maxUpvote",
              "type": "int256"
            },
            {
              "internalType": "int256",
              "name": "mostUpvoteAnsIndex",
              "type": "int256"
            },
            {
              "internalType": "address",
              "name": "current_winner",
              "type": "address"
            }
          ],
          "internalType": "struct StreamFlow.Doubt[]",
          "name": "",
          "type": "tuple[]"
        }
      ],
      "stateMutability": "view",
      "type": "function"
    },
    {
      "inputs": [
        {
          "internalType": "address",
          "name": "_doubtPoster",
          "type": "address"
        }
      ],
      "name": "setReceiver",
      "outputs": [],
      "stateMutability": "nonpayable",
      "type": "function"
    },
    {
      "inputs": [
        {
          "internalType": "uint256",
          "name": "doubtIndex",
          "type": "uint256"
        },
        {
          "internalType": "uint256",
          "name": "ansIndex",
          "type": "uint256"
        }
      ],
      "name": "upVote",
      "outputs": [],
      "stateMutability": "nonpayable",
      "type": "function"
    },
    {
      "inputs": [
        {
          "internalType": "string",
          "name": "_heading",
          "type": "string"
        },
        {
          "internalType": "string",
          "name": "_description",
          "type": "string"
        },
        {
          "internalType": "uint256",
          "name": "_dueDate",
          "type": "uint256"
        },
        {
          "internalType": "int96",
          "name": "_bounty",
          "type": "int96"
        }
      ],
      "name": "writeDoubt",
      "outputs": [],
      "stateMutability": "nonpayable",
      "type": "function"
    }
  ],
  "bytecode": "0x608060405260006008553480156200001657600080fd5b506040516200526c3803806200526c83398181016040528101906200003c9190620006a6565b82828286600073ffffffffffffffffffffffffffffffffffffffff168473ffffffffffffffffffffffffffffffffffffffff161415620000b3576040517f08c379a0000000000000000000000000000000000000000000000000000000008152600401620000aa9062000900565b60405180910390fd5b600073ffffffffffffffffffffffffffffffffffffffff168373ffffffffffffffffffffffffffffffffffffffff16141562000126576040517f08c379a00000000000000000000000000000000000000000000000000000000081526004016200011d90620008de565b60405180910390fd5b600073ffffffffffffffffffffffffffffffffffffffff168273ffffffffffffffffffffffffffffffffffffffff16141562000199576040517f08c379a000000000000000000000000000000000000000000000000000000000815260040162000190906200089a565b60405180910390fd5b600073ffffffffffffffffffffffffffffffffffffffff168173ffffffffffffffffffffffffffffffffffffffff1614156200020c576040517f08c379a00000000000000000000000000000000000000000000000000000000081526004016200020390620008bc565b60405180910390fd5b8373ffffffffffffffffffffffffffffffffffffffff16633ca3ad4e826040518263ffffffff1660e01b81526004016200024791906200087d565b60206040518083038186803b1580156200026057600080fd5b505afa15801562000275573d6000803e3d6000fd5b505050506040513d601f19601f820116820180604052508101906200029b919062000712565b15620002de576040517f08c379a0000000000000000000000000000000000000000000000000000000008152600401620002d59062000922565b60405180910390fd5b836000806101000a81548173ffffffffffffffffffffffffffffffffffffffff021916908373ffffffffffffffffffffffffffffffffffffffff16021790555082600160006101000a81548173ffffffffffffffffffffffffffffffffffffffff021916908373ffffffffffffffffffffffffffffffffffffffff16021790555081600260006101000a81548173ffffffffffffffffffffffffffffffffffffffff021916908373ffffffffffffffffffffffffffffffffffffffff16021790555080600360006101000a81548173ffffffffffffffffffffffffffffffffffffffff021916908373ffffffffffffffffffffffffffffffffffffffff16021790555060405180604001604052808573ffffffffffffffffffffffffffffffffffffffff1681526020018573ffffffffffffffffffffffffffffffffffffffff1663b6d200de7fa9214cc96615e0085d3bb077758db69497dc2dce3b2b1e97bc93c3d18d83efd36040518263ffffffff1660e01b815260040162000463919062000860565b60206040518083038186803b1580156200047c57600080fd5b505afa15801562000491573d6000803e3d6000fd5b505050506040513d601f19601f82011682018060405250810190620004b791906200073e565b73ffffffffffffffffffffffffffffffffffffffff16815250600460008201518160000160006101000a81548173ffffffffffffffffffffffffffffffffffffffff021916908373ffffffffffffffffffffffffffffffffffffffff16021790555060208201518160010160006101000a81548173ffffffffffffffffffffffffffffffffffffffff021916908373ffffffffffffffffffffffffffffffffffffffff16021790555090505060006410000000006404000000006401000000006001171717905060008054906101000a900473ffffffffffffffffffffffffffffffffffffffff1673ffffffffffffffffffffffffffffffffffffffff1663ad3915c8826040518263ffffffff1660e01b8152600401620005d9919062000944565b600060405180830381600087803b158015620005f457600080fd5b505af115801562000609573d6000803e3d6000fd5b5050505050505050505050505062000ba7565b6000815190506200062d8162000b0b565b92915050565b600081519050620006448162000b25565b92915050565b6000815190506200065b8162000b3f565b92915050565b600081519050620006728162000b59565b92915050565b600081519050620006898162000b73565b92915050565b600081519050620006a08162000b8d565b92915050565b60008060008060808587031215620006bd57600080fd5b6000620006cd878288016200061c565b9450506020620006e0878288016200068f565b9350506040620006f3878288016200064a565b9250506060620007068782880162000678565b91505092959194509250565b6000602082840312156200072557600080fd5b6000620007358482850162000633565b91505092915050565b6000602082840312156200075157600080fd5b6000620007618482850162000661565b91505092915050565b620007758162000992565b82525050565b620007868162000a16565b82525050565b60006200079b601d8362000961565b9150620007a88262000a3e565b602082019050919050565b6000620007c260188362000961565b9150620007cf8262000a67565b602082019050919050565b6000620007e960138362000961565b9150620007f68262000a90565b602082019050919050565b60006200081060148362000961565b91506200081d8262000ab9565b602082019050919050565b60006200083760128362000961565b9150620008448262000ae2565b602082019050919050565b6200085a8162000a0c565b82525050565b60006020820190506200087760008301846200076a565b92915050565b60006020820190506200089460008301846200077b565b92915050565b60006020820190508181036000830152620008b5816200078c565b9050919050565b60006020820190508181036000830152620008d781620007b3565b9050919050565b60006020820190508181036000830152620008f981620007da565b9050919050565b600060208201905081810360008301526200091b8162000801565b9050919050565b600060208201905081810360008301526200093d8162000828565b9050919050565b60006020820190506200095b60008301846200084f565b92915050565b600082825260208201905092915050565b60006200097f82620009ec565b9050919050565b60008115159050919050565b6000819050919050565b6000620009a98262000972565b9050919050565b6000620009bd8262000972565b9050919050565b6000620009d18262000972565b9050919050565b6000620009e58262000972565b9050919050565b600073ffffffffffffffffffffffffffffffffffffffff82169050919050565b6000819050919050565b600062000a238262000a2a565b9050919050565b600062000a3782620009ec565b9050919050565b7f6163636570746564546f6b656e206973207a65726f2061646472657373000000600082015250565b7f7265636569766572206973207a65726f20616464726573730000000000000000600082015250565b7f636661206973207a65726f206164647265737300000000000000000000000000600082015250565b7f686f7374206973207a65726f2061646472657373000000000000000000000000600082015250565b7f726563656976657220697320616e206170700000000000000000000000000000600082015250565b62000b168162000972565b811462000b2257600080fd5b50565b62000b308162000986565b811462000b3c57600080fd5b50565b62000b4a816200099c565b811462000b5657600080fd5b50565b62000b6481620009b0565b811462000b7057600080fd5b50565b62000b7e81620009c4565b811462000b8a57600080fd5b50565b62000b9881620009d8565b811462000ba457600080fd5b50565b6146b58062000bb76000396000f3fe608060405234801561001057600080fd5b50600436106101005760003560e01c80637ec70a79116100975780639f3e5bd3116100665780639f3e5bd3146102d3578063d3112b2e146102f1578063d86ed3e514610310578063e8aa8cd51461034057610100565b80637ec70a791461024d578063804f24bb14610269578063884d1f4014610287578063919eff90146102b757610100565b806330d9c915116100d357806330d9c915146101a157806353c11f99146101d15780635f9e7d7714610201578063718da7ee1461023157610100565b8063230dbd29146101055780632552f6751461013557806328d2bf94146101655780632d2fe18914610185575b600080fd5b61011f600480360381019061011a9190613112565b610370565b60405161012c919061394a565b60405180910390f35b61014f600480360381019061014a9190612f3a565b6104ad565b60405161015c9190613bdb565b60405180910390f35b61016d61058f565b60405161017c93929190613d16565b60405180910390f35b61019f600480360381019061019a91906132ad565b610712565b005b6101bb60048036038101906101b69190613062565b6108d9565b6040516101c8919061394a565b60405180910390f35b6101eb60048036038101906101e69190613112565b610916565b6040516101f8919061394a565b60405180910390f35b61021b60048036038101906102169190613062565b610a2c565b604051610228919061394a565b60405180910390f35b61024b60048036038101906102469190612f3a565b610a69565b005b6102676004803603810190610262919061321a565b610aad565b005b610271610d4d565b60405161027e9190613bdb565b60405180910390f35b6102a1600480360381019061029c9190613062565b610e23565b6040516102ae919061394a565b60405180910390f35b6102d160048036038101906102cc919061338d565b610e60565b005b6102db61140b565b6040516102e89190613928565b60405180910390f35b6102f961168a565b604051610307929190613bb2565b60405180910390f35b61032a60048036038101906103259190613112565b6116dc565b604051610337919061394a565b60405180910390f35b61035a60048036038101906103559190613301565b611819565b6040516103679190613906565b60405180910390f35b6060898961037d82611987565b6103bc576040517f08c379a00000000000000000000000000000000000000000000000000000000081526004016103b390613c16565b60405180910390fd5b6103c5816119e1565b610404576040517f08c379a00000000000000000000000000000000000000000000000000000000081526004016103fb90613bf6565b60405180910390fd5b60008054906101000a900473ffffffffffffffffffffffffffffffffffffffff1673ffffffffffffffffffffffffffffffffffffffff163373ffffffffffffffffffffffffffffffffffffffff1614610492576040517f08c379a000000000000000000000000000000000000000000000000000000000815260040161048990613c56565b60405180910390fd5b61049c8585611a8a565b925050509998505050505050505050565b600080600160009054906101000a900473ffffffffffffffffffffffffffffffffffffffff1673ffffffffffffffffffffffffffffffffffffffff1663e6a1e888600260009054906101000a900473ffffffffffffffffffffffffffffffffffffffff1630866040518463ffffffff1660e01b815260040161053193929190613a4b565b60806040518083038186803b15801561054957600080fd5b505afa15801561055d573d6000803e3d6000fd5b505050506040513d601f19601f82011682018060405250810190610581919061332a565b505091505080915050919050565b60008060008073ffffffffffffffffffffffffffffffffffffffff16600360009054906101000a900473ffffffffffffffffffffffffffffffffffffffff1673ffffffffffffffffffffffffffffffffffffffff161461070d57600160009054906101000a900473ffffffffffffffffffffffffffffffffffffffff1673ffffffffffffffffffffffffffffffffffffffff1663e6a1e888600260009054906101000a900473ffffffffffffffffffffffffffffffffffffffff1630600360009054906101000a900473ffffffffffffffffffffffffffffffffffffffff166040518463ffffffff1660e01b815260040161068c93929190613a4b565b60806040518083038186803b1580156106a457600080fd5b505afa1580156106b8573d6000803e3d6000fd5b505050506040513d601f19601f820116820180604052508101906106dc919061332a565b9050508092508194505050600360009054906101000a900473ffffffffffffffffffffffffffffffffffffffff1691505b909192565b600060405180608001604052808481526020013373ffffffffffffffffffffffffffffffffffffffff16815260200160008152602001600960008581526020019081526020016000208054905081525090506009600083815260200190815260200160002081908060018154018082558091505060019003906000526020600020906004020160009091909190915060008201518160000190805190602001906107bd929190612cc0565b5060208201518160010160006101000a81548173ffffffffffffffffffffffffffffffffffffffff021916908373ffffffffffffffffffffffffffffffffffffffff16021790555060408201518160020155606082015181600301555050600a60008381526020019081526020016000206000600160096000868152602001908152602001600020805490506108539190614076565b8152602001908152602001600020503373ffffffffffffffffffffffffffffffffffffffff167f07c0e562113ab57f5bb44b2792975d2399280f688e4e0ffd86a1fe9467c2c531600960008581526020019081526020016000208054905084846000015185604001516040516108cc9493929190613d92565b60405180910390a2505050565b60606040517f08c379a000000000000000000000000000000000000000000000000000000000815260040161090d90613cf6565b60405180910390fd5b606060008054906101000a900473ffffffffffffffffffffffffffffffffffffffff1673ffffffffffffffffffffffffffffffffffffffff163373ffffffffffffffffffffffffffffffffffffffff16146109a6576040517f08c379a000000000000000000000000000000000000000000000000000000000815260040161099d90613c56565b60405180910390fd5b6109af8a611987565b15806109c157506109bf896119e1565b155b15610a125782828080601f016020809104026020016040519081016040528093929190818152602001838380828437600081840152601f19601f820116905080830192505050505050509050610a1f565b610a1c8383611a8a565b90505b9998505050505050505050565b60606040517f08c379a0000000000000000000000000000000000000000000000000000000008152600401610a6090613c36565b60405180910390fd5b80600360006101000a81548173ffffffffffffffffffffffffffffffffffffffff021916908373ffffffffffffffffffffffffffffffffffffffff16021790555050565b60076040518061014001604052803373ffffffffffffffffffffffffffffffffffffffff168152602001600854815260200186815260200185815260200183600b0b81526020014281526020014285610b069190613fa0565b81526020017fffffffffffffffffffffffffffffffffffffffffffffffffffffffffffffffff81526020017fffffffffffffffffffffffffffffffffffffffffffffffffffffffffffffffff81526020013373ffffffffffffffffffffffffffffffffffffffff1681525090806001815401808255809150506001900390600052602060002090600a020160009091909190915060008201518160000160006101000a81548173ffffffffffffffffffffffffffffffffffffffff021916908373ffffffffffffffffffffffffffffffffffffffff160217905550602082015181600101556040820151816002019080519060200190610c07929190612cc0565b506060820151816003019080519060200190610c24929190612cc0565b5060808201518160040160006101000a8154816bffffffffffffffffffffffff0219169083600b0b6bffffffffffffffffffffffff16021790555060a0820151816005015560c0820151816006015560e0820151816007015561010082015181600801556101208201518160090160006101000a81548173ffffffffffffffffffffffffffffffffffffffff021916908373ffffffffffffffffffffffffffffffffffffffff1602179055505050610cdb33610a69565b3373ffffffffffffffffffffffffffffffffffffffff167f0dc6648229e45e8c6145251075de7315b60b85d6160184f43966bf4b3ca350266008548686604051610d2793929190613d4d565b60405180910390a260086000815480929190610d4290614290565b919050555050505050565b6000600160009054906101000a900473ffffffffffffffffffffffffffffffffffffffff1673ffffffffffffffffffffffffffffffffffffffff1663e8e7e2d1600260009054906101000a900473ffffffffffffffffffffffffffffffffffffffff16306040518363ffffffff1660e01b8152600401610dce929190613a22565b60206040518083038186803b158015610de657600080fd5b505afa158015610dfa573d6000803e3d6000fd5b505050506040513d601f19601f82011682018060405250810190610e1e91906131f1565b905090565b60606040517f08c379a0000000000000000000000000000000000000000000000000000000008152600401610e5790613cd6565b60405180910390fd5b60001515600a6000848152602001908152602001600020600083815260200190815260200160002060003373ffffffffffffffffffffffffffffffffffffffff1673ffffffffffffffffffffffffffffffffffffffff16815260200190815260200160002060009054906101000a900460ff16151514610f15576040517f08c379a0000000000000000000000000000000000000000000000000000000008152600401610f0c90613c96565b60405180910390fd5b6001600a6000848152602001908152602001600020600083815260200190815260200160002060003373ffffffffffffffffffffffffffffffffffffffff1673ffffffffffffffffffffffffffffffffffffffff16815260200190815260200160002060006101000a81548160ff021916908315150217905550600960008381526020019081526020016000208181548110610fda577f4e487b7100000000000000000000000000000000000000000000000000000000600052603260045260246000fd5b90600052602060002090600402016002016000815480929190610ffc90614290565b91905055506007828154811061103b577f4e487b7100000000000000000000000000000000000000000000000000000000600052603260045260246000fd5b90600052602060002090600a020160070154600960008481526020019081526020016000208281548110611098577f4e487b7100000000000000000000000000000000000000000000000000000000600052603260045260246000fd5b9060005260206000209060040201600201541315611407576009600083815260200190815260200160002081815481106110fb577f4e487b7100000000000000000000000000000000000000000000000000000000600052603260045260246000fd5b90600052602060002090600402016002015460078381548110611147577f4e487b7100000000000000000000000000000000000000000000000000000000600052603260045260246000fd5b90600052602060002090600a0201600701819055508060078381548110611197577f4e487b7100000000000000000000000000000000000000000000000000000000600052603260045260246000fd5b90600052602060002090600a0201600801819055506000600783815481106111e8577f4e487b7100000000000000000000000000000000000000000000000000000000600052603260045260246000fd5b90600052602060002090600a020160090160009054906101000a900473ffffffffffffffffffffffffffffffffffffffff169050600960008481526020019081526020016000208281548110611267577f4e487b7100000000000000000000000000000000000000000000000000000000600052603260045260246000fd5b906000526020600020906004020160010160009054906101000a900473ffffffffffffffffffffffffffffffffffffffff16600784815481106112d3577f4e487b7100000000000000000000000000000000000000000000000000000000600052603260045260246000fd5b90600052602060002090600a020160090160006101000a81548173ffffffffffffffffffffffffffffffffffffffff021916908373ffffffffffffffffffffffffffffffffffffffff16021790555060006007848154811061135e577f4e487b7100000000000000000000000000000000000000000000000000000000600052603260045260246000fd5b90600052602060002090600a020160040160009054906101000a9004600b0b90506000600b0b81600b0b1461140457611403600785815481106113ca577f4e487b7100000000000000000000000000000000000000000000000000000000600052603260045260246000fd5b90600052602060002090600a020160090160009054906101000a900473ffffffffffffffffffffffffffffffffffffffff168383612309565b5b50505b5050565b60606007805480602002602001604051908101604052809291908181526020016000905b8282101561168157838290600052602060002090600a0201604051806101400160405290816000820160009054906101000a900473ffffffffffffffffffffffffffffffffffffffff1673ffffffffffffffffffffffffffffffffffffffff1673ffffffffffffffffffffffffffffffffffffffff168152602001600182015481526020016002820180546114c39061422d565b80601f01602080910402602001604051908101604052809291908181526020018280546114ef9061422d565b801561153c5780601f106115115761010080835404028352916020019161153c565b820191906000526020600020905b81548152906001019060200180831161151f57829003601f168201915b505050505081526020016003820180546115559061422d565b80601f01602080910402602001604051908101604052809291908181526020018280546115819061422d565b80156115ce5780601f106115a3576101008083540402835291602001916115ce565b820191906000526020600020905b8154815290600101906020018083116115b157829003601f168201915b505050505081526020016004820160009054906101000a9004600b0b600b0b600b0b8152602001600582015481526020016006820154815260200160078201548152602001600882015481526020016009820160009054906101000a900473ffffffffffffffffffffffffffffffffffffffff1673ffffffffffffffffffffffffffffffffffffffff1673ffffffffffffffffffffffffffffffffffffffff16815250508152602001906001019061142f565b50505050905090565b60048060000160009054906101000a900473ffffffffffffffffffffffffffffffffffffffff16908060010160009054906101000a900473ffffffffffffffffffffffffffffffffffffffff16905082565b606089896116e982611987565b611728576040517f08c379a000000000000000000000000000000000000000000000000000000000815260040161171f90613c16565b60405180910390fd5b611731816119e1565b611770576040517f08c379a000000000000000000000000000000000000000000000000000000000815260040161176790613bf6565b60405180910390fd5b60008054906101000a900473ffffffffffffffffffffffffffffffffffffffff1673ffffffffffffffffffffffffffffffffffffffff163373ffffffffffffffffffffffffffffffffffffffff16146117fe576040517f08c379a00000000000000000000000000000000000000000000000000000000081526004016117f590613c56565b60405180910390fd5b6118088585611a8a565b925050509998505050505050505050565b606060096000838152602001908152602001600020805480602002602001604051908101604052809291908181526020016000905b8282101561197c57838290600052602060002090600402016040518060800160405290816000820180546118819061422d565b80601f01602080910402602001604051908101604052809291908181526020018280546118ad9061422d565b80156118fa5780601f106118cf576101008083540402835291602001916118fa565b820191906000526020600020905b8154815290600101906020018083116118dd57829003601f168201915b505050505081526020016001820160009054906101000a900473ffffffffffffffffffffffffffffffffffffffff1673ffffffffffffffffffffffffffffffffffffffff1673ffffffffffffffffffffffffffffffffffffffff168152602001600282015481526020016003820154815250508152602001906001019061184e565b505050509050919050565b6000600260009054906101000a900473ffffffffffffffffffffffffffffffffffffffff1673ffffffffffffffffffffffffffffffffffffffff168273ffffffffffffffffffffffffffffffffffffffff16149050919050565b60007fa9214cc96615e0085d3bb077758db69497dc2dce3b2b1e97bc93c3d18d83efd38273ffffffffffffffffffffffffffffffffffffffff16637730599e6040518163ffffffff1660e01b815260040160206040518083038186803b158015611a4a57600080fd5b505afa158015611a5e573d6000803e3d6000fd5b505050506040513d601f19601f82011682018060405250810190611a829190612f8c565b149050919050565b606082828080601f016020809104026020016040519081016040528093929190818152602001838380828437600081840152601f19601f8201169050808301925050505050505090506000600160009054906101000a900473ffffffffffffffffffffffffffffffffffffffff1673ffffffffffffffffffffffffffffffffffffffff1663e8e7e2d1600260009054906101000a900473ffffffffffffffffffffffffffffffffffffffff16306040518363ffffffff1660e01b8152600401611b54929190613a22565b60206040518083038186803b158015611b6c57600080fd5b505afa158015611b80573d6000803e3d6000fd5b505050506040513d601f19601f82011682018060405250810190611ba491906131f1565b90506000600160009054906101000a900473ffffffffffffffffffffffffffffffffffffffff1673ffffffffffffffffffffffffffffffffffffffff1663e6a1e888600260009054906101000a900473ffffffffffffffffffffffffffffffffffffffff1630600360009054906101000a900473ffffffffffffffffffffffffffffffffffffffff166040518463ffffffff1660e01b8152600401611c4b93929190613a4b565b60806040518083038186803b158015611c6357600080fd5b505afa158015611c77573d6000803e3d6000fd5b505050506040513d601f19601f82011682018060405250810190611c9b919061332a565b505091505060008183611cae9190613f20565b90506000600b0b81600b0b1415611ed15760008054906101000a900473ffffffffffffffffffffffffffffffffffffffff1673ffffffffffffffffffffffffffffffffffffffff16634329d293600160009054906101000a900473ffffffffffffffffffffffffffffffffffffffff1663b4b333c660e01b600260009054906101000a900473ffffffffffffffffffffffffffffffffffffffff1630600360009054906101000a900473ffffffffffffffffffffffffffffffffffffffff16600067ffffffffffffffff811115611dae577f4e487b7100000000000000000000000000000000000000000000000000000000600052604160045260246000fd5b6040519080825280601f01601f191660200182016040528015611de05781602001600182028036833780820191505090505b50604051602401611df49493929190613a82565b604051602081830303815290604052907bffffffffffffffffffffffffffffffffffffffffffffffffffffffff19166020820180517bffffffffffffffffffffffffffffffffffffffffffffffffffffffff8381831617835250505050876040518463ffffffff1660e01b8152600401611e70939291906139af565b600060405180830381600087803b158015611e8a57600080fd5b505af1158015611e9e573d6000803e3d6000fd5b505050506040513d6000823e3d601f19601f82011682018060405250810190611ec79190612ff6565b5080945050612300565b6000600b0b82600b0b146120f15760008054906101000a900473ffffffffffffffffffffffffffffffffffffffff1673ffffffffffffffffffffffffffffffffffffffff16634329d293600160009054906101000a900473ffffffffffffffffffffffffffffffffffffffff166350209a6260e01b600260009054906101000a900473ffffffffffffffffffffffffffffffffffffffff16600360009054906101000a900473ffffffffffffffffffffffffffffffffffffffff1686600067ffffffffffffffff811115611fce577f4e487b7100000000000000000000000000000000000000000000000000000000600052604160045260246000fd5b6040519080825280601f01601f1916602001820160405280156120005781602001600182028036833780820191505090505b506040516024016120149493929190613ace565b604051602081830303815290604052907bffffffffffffffffffffffffffffffffffffffffffffffffffffffff19166020820180517bffffffffffffffffffffffffffffffffffffffffffffffffffffffff8381831617835250505050876040518463ffffffff1660e01b8152600401612090939291906139af565b600060405180830381600087803b1580156120aa57600080fd5b505af11580156120be573d6000803e3d6000fd5b505050506040513d6000823e3d601f19601f820116820180604052508101906120e79190612ff6565b50809450506122ff565b60008054906101000a900473ffffffffffffffffffffffffffffffffffffffff1673ffffffffffffffffffffffffffffffffffffffff16634329d293600160009054906101000a900473ffffffffffffffffffffffffffffffffffffffff166362fc305e60e01b600260009054906101000a900473ffffffffffffffffffffffffffffffffffffffff16600360009054906101000a900473ffffffffffffffffffffffffffffffffffffffff1686600067ffffffffffffffff8111156121e0577f4e487b7100000000000000000000000000000000000000000000000000000000600052604160045260246000fd5b6040519080825280601f01601f1916602001820160405280156122125781602001600182028036833780820191505090505b506040516024016122269493929190613ace565b604051602081830303815290604052907bffffffffffffffffffffffffffffffffffffffffffffffffffffffff19166020820180517bffffffffffffffffffffffffffffffffffffffffffffffffffffffff8381831617835250505050876040518463ffffffff1660e01b81526004016122a2939291906139af565b600060405180830381600087803b1580156122bc57600080fd5b505af11580156122d0573d6000803e3d6000fd5b505050506040513d6000823e3d601f19601f820116820180604052508101906122f99190612ff6565b50809450505b5b50505092915050565b600073ffffffffffffffffffffffffffffffffffffffff168373ffffffffffffffffffffffffffffffffffffffff161415612379576040517f08c379a000000000000000000000000000000000000000000000000000000000815260040161237090613c76565b60405180910390fd5b60008054906101000a900473ffffffffffffffffffffffffffffffffffffffff1673ffffffffffffffffffffffffffffffffffffffff16633ca3ad4e846040518263ffffffff1660e01b81526004016123d29190613a07565b60206040518083038186803b1580156123ea57600080fd5b505afa1580156123fe573d6000803e3d6000fd5b505050506040513d601f19601f820116820180604052508101906124229190612f63565b15612462576040517f08c379a000000000000000000000000000000000000000000000000000000000815260040161245990613cb6565b60405180910390fd5b8173ffffffffffffffffffffffffffffffffffffffff168373ffffffffffffffffffffffffffffffffffffffff16141561249b5761291d565b6000600160009054906101000a900473ffffffffffffffffffffffffffffffffffffffff1673ffffffffffffffffffffffffffffffffffffffff1663e6a1e888600260009054906101000a900473ffffffffffffffffffffffffffffffffffffffff1630866040518463ffffffff1660e01b815260040161251e93929190613a4b565b60806040518083038186803b15801561253657600080fd5b505afa15801561254a573d6000803e3d6000fd5b505050506040513d601f19601f8201168201806040525081019061256e919061332a565b50509150506000600b0b81600b0b13801561258e575081600b0b81600b0b145b156127b35760008054906101000a900473ffffffffffffffffffffffffffffffffffffffff1673ffffffffffffffffffffffffffffffffffffffff166339255d5b600160009054906101000a900473ffffffffffffffffffffffffffffffffffffffff1663b4b333c660e01b600260009054906101000a900473ffffffffffffffffffffffffffffffffffffffff163088600067ffffffffffffffff811115612660577f4e487b7100000000000000000000000000000000000000000000000000000000600052604160045260246000fd5b6040519080825280601f01601f1916602001820160405280156126925781602001600182028036833780820191505090505b506040516024016126a69493929190613a82565b604051602081830303815290604052907bffffffffffffffffffffffffffffffffffffffffffffffffffffffff19166020820180517bffffffffffffffffffffffffffffffffffffffffffffffffffffffff83818316178352505050506040518363ffffffff1660e01b815260040161272092919061396c565b600060405180830381600087803b15801561273a57600080fd5b505af115801561274e573d6000803e3d6000fd5b505050506040513d6000823e3d601f19601f820116820180604052508101906127779190612fb5565b506127b284600260009054906101000a900473ffffffffffffffffffffffffffffffffffffffff16836004612922909392919063ffffffff16565b5b81600b0b81600b0b131561288157600082826127cf9190613ff6565b905061280b3085600260009054906101000a900473ffffffffffffffffffffffffffffffffffffffff166004612af1909392919063ffffffff16565b61284584600260009054906101000a900473ffffffffffffffffffffffffffffffffffffffff16836004612922909392919063ffffffff16565b61287f85600260009054906101000a900473ffffffffffffffffffffffffffffffffffffffff16856004612922909392919063ffffffff16565b505b83600360006101000a81548173ffffffffffffffffffffffffffffffffffffffff021916908373ffffffffffffffffffffffffffffffffffffffff1602179055507f7dfb1d59db37a3fd2e15e796c189dcab714cdbb18650d68a1de58f8fa60718c9600360009054906101000a900473ffffffffffffffffffffffffffffffffffffffff1660405161291391906138eb565b60405180910390a1505b505050565b8360000160009054906101000a900473ffffffffffffffffffffffffffffffffffffffff1673ffffffffffffffffffffffffffffffffffffffff166339255d5b8560010160009054906101000a900473ffffffffffffffffffffffffffffffffffffffff166362fc305e60e01b858786600067ffffffffffffffff8111156129d3577f4e487b7100000000000000000000000000000000000000000000000000000000600052604160045260246000fd5b6040519080825280601f01601f191660200182016040528015612a055781602001600182028036833780820191505090505b50604051602401612a199493929190613b66565b604051602081830303815290604052907bffffffffffffffffffffffffffffffffffffffffffffffffffffffff19166020820180517bffffffffffffffffffffffffffffffffffffffffffffffffffffffff83818316178352505050506040518363ffffffff1660e01b8152600401612a9392919061396c565b600060405180830381600087803b158015612aad57600080fd5b505af1158015612ac1573d6000803e3d6000fd5b505050506040513d6000823e3d601f19601f82011682018060405250810190612aea9190612fb5565b5050505050565b8360000160009054906101000a900473ffffffffffffffffffffffffffffffffffffffff1673ffffffffffffffffffffffffffffffffffffffff166339255d5b8560010160009054906101000a900473ffffffffffffffffffffffffffffffffffffffff1663b4b333c660e01b848787600067ffffffffffffffff811115612ba2577f4e487b7100000000000000000000000000000000000000000000000000000000600052604160045260246000fd5b6040519080825280601f01601f191660200182016040528015612bd45781602001600182028036833780820191505090505b50604051602401612be89493929190613b1a565b604051602081830303815290604052907bffffffffffffffffffffffffffffffffffffffffffffffffffffffff19166020820180517bffffffffffffffffffffffffffffffffffffffffffffffffffffffff83818316178352505050506040518363ffffffff1660e01b8152600401612c6292919061396c565b600060405180830381600087803b158015612c7c57600080fd5b505af1158015612c90573d6000803e3d6000fd5b505050506040513d6000823e3d601f19601f82011682018060405250810190612cb99190612fb5565b5050505050565b828054612ccc9061422d565b90600052602060002090601f016020900481019282612cee5760008555612d35565b82601f10612d0757805160ff1916838001178555612d35565b82800160010185558215612d35579182015b82811115612d34578251825591602001919060010190612d19565b5b509050612d429190612d46565b5090565b5b80821115612d5f576000816000905550600101612d47565b5090565b6000612d76612d7184613e03565b613dde565b905082815260208101848484011115612d8e57600080fd5b612d998482856141fa565b509392505050565b6000612db4612daf84613e34565b613dde565b905082815260208101848484011115612dcc57600080fd5b612dd78482856141eb565b509392505050565b600081359050612dee816145f5565b92915050565b600081519050612e038161460c565b92915050565b600081359050612e1881614623565b92915050565b600081519050612e2d81614623565b92915050565b60008083601f840112612e4557600080fd5b8235905067ffffffffffffffff811115612e5e57600080fd5b602083019150836001820283011115612e7657600080fd5b9250929050565b600082601f830112612e8e57600080fd5b8151612e9e848260208601612d63565b91505092915050565b600081359050612eb68161463a565b92915050565b600081359050612ecb81614651565b92915050565b600081519050612ee081614651565b92915050565b600082601f830112612ef757600080fd5b8135612f07848260208601612da1565b91505092915050565b600081359050612f1f81614668565b92915050565b600081519050612f3481614668565b92915050565b600060208284031215612f4c57600080fd5b6000612f5a84828501612ddf565b91505092915050565b600060208284031215612f7557600080fd5b6000612f8384828501612df4565b91505092915050565b600060208284031215612f9e57600080fd5b6000612fac84828501612e1e565b91505092915050565b600060208284031215612fc757600080fd5b600082015167ffffffffffffffff811115612fe157600080fd5b612fed84828501612e7d565b91505092915050565b6000806040838503121561300957600080fd5b600083015167ffffffffffffffff81111561302357600080fd5b61302f85828601612e7d565b925050602083015167ffffffffffffffff81111561304c57600080fd5b61305885828601612e7d565b9150509250929050565b600080600080600080600060a0888a03121561307d57600080fd5b600061308b8a828b01612ea7565b975050602061309c8a828b01612ddf565b96505060406130ad8a828b01612e09565b955050606088013567ffffffffffffffff8111156130ca57600080fd5b6130d68a828b01612e33565b9450945050608088013567ffffffffffffffff8111156130f557600080fd5b6131018a828b01612e33565b925092505092959891949750929550565b600080600080600080600080600060c08a8c03121561313057600080fd5b600061313e8c828d01612ea7565b995050602061314f8c828d01612ddf565b98505060406131608c828d01612e09565b97505060608a013567ffffffffffffffff81111561317d57600080fd5b6131898c828d01612e33565b965096505060808a013567ffffffffffffffff8111156131a857600080fd5b6131b48c828d01612e33565b945094505060a08a013567ffffffffffffffff8111156131d357600080fd5b6131df8c828d01612e33565b92509250509295985092959850929598565b60006020828403121561320357600080fd5b600061321184828501612ed1565b91505092915050565b6000806000806080858703121561323057600080fd5b600085013567ffffffffffffffff81111561324a57600080fd5b61325687828801612ee6565b945050602085013567ffffffffffffffff81111561327357600080fd5b61327f87828801612ee6565b935050604061329087828801612f10565b92505060606132a187828801612ebc565b91505092959194509250565b600080604083850312156132c057600080fd5b600083013567ffffffffffffffff8111156132da57600080fd5b6132e685828601612ee6565b92505060206132f785828601612f10565b9150509250929050565b60006020828403121561331357600080fd5b600061332184828501612f10565b91505092915050565b6000806000806080858703121561334057600080fd5b600061334e87828801612f25565b945050602061335f87828801612ed1565b935050604061337087828801612f25565b925050606061338187828801612f25565b91505092959194509250565b600080604083850312156133a057600080fd5b60006133ae85828601612f10565b92505060206133bf85828601612f10565b9150509250929050565b60006133d58383613789565b905092915050565b60006133e983836137ec565b905092915050565b6133fa816140bc565b82525050565b613409816140aa565b82525050565b613418816140aa565b82525050565b600061342982613e85565b6134338185613ecb565b93508360208202850161344585613e65565b8060005b85811015613481578484038952815161346285826133c9565b945061346d83613eb1565b925060208a01995050600181019050613449565b50829750879550505050505092915050565b600061349e82613e90565b6134a88185613edc565b9350836020820285016134ba85613e75565b8060005b858110156134f657848403895281516134d785826133dd565b94506134e283613ebe565b925060208a019950506001810190506134be565b50829750879550505050505092915050565b600061351382613e9b565b61351d8185613eed565b935061352d8185602086016141fa565b61353681614366565b840191505092915050565b61354a81614137565b82525050565b6135598161415b565b82525050565b6135688161417f565b82525050565b613577816141a3565b82525050565b613586816141c7565b82525050565b613595816140f6565b82525050565b6135a481614100565b82525050565b6135b381614100565b82525050565b60006135c482613ea6565b6135ce8185613efe565b93506135de8185602086016141fa565b6135e781614366565b840191505092915050565b60006135fd82613ea6565b6136078185613f0f565b93506136178185602086016141fa565b61362081614366565b840191505092915050565b6000613638602183613f0f565b915061364382614377565b604082019050919050565b600061365b601f83613f0f565b9150613666826143c6565b602082019050919050565b600061367e603383613f0f565b9150613689826143ef565b604082019050919050565b60006136a1602283613f0f565b91506136ac8261443e565b604082019050919050565b60006136c4600283613eed565b91506136cf8261448d565b602082019050919050565b60006136e7601c83613f0f565b91506136f2826144b6565b602082019050919050565b600061370a601f83613f0f565b9150613715826144df565b602082019050919050565b600061372d602283613f0f565b915061373882614508565b604082019050919050565b6000613750602f83613f0f565b915061375b82614557565b604082019050919050565b6000613773602f83613f0f565b915061377e826145a6565b604082019050919050565b600060808301600083015184820360008601526137a682826135b9565b91505060208301516137bb6020860182613400565b5060408301516137ce60408601826138cd565b5060608301516137e160608601826138cd565b508091505092915050565b60006101408301600083015161380560008601826133f1565b50602083015161381860208601826138cd565b506040830151848203604086015261383082826135b9565b9150506060830151848203606086015261384a82826135b9565b915050608083015161385f608086018261359b565b5060a083015161387260a08601826138cd565b5060c083015161388560c08601826138cd565b5060e083015161389860e086018261358c565b506101008301516138ad61010086018261358c565b506101208301516138c2610120860182613400565b508091505092915050565b6138d68161412d565b82525050565b6138e58161412d565b82525050565b6000602082019050613900600083018461340f565b92915050565b60006020820190508181036000830152613920818461341e565b905092915050565b600060208201905081810360008301526139428184613493565b905092915050565b600060208201905081810360008301526139648184613508565b905092915050565b60006060820190506139816000830185613541565b81810360208301526139938184613508565b905081810360408301526139a6816136b7565b90509392505050565b60006080820190506139c46000830186613541565b81810360208301526139d68185613508565b905081810360408301526139e9816136b7565b905081810360608301526139fd8184613508565b9050949350505050565b6000602082019050613a1c6000830184613550565b92915050565b6000604082019050613a37600083018561355f565b613a44602083018461340f565b9392505050565b6000606082019050613a60600083018661355f565b613a6d602083018561340f565b613a7a604083018461340f565b949350505050565b6000608082019050613a97600083018761355f565b613aa4602083018661340f565b613ab1604083018561340f565b8181036060830152613ac38184613508565b905095945050505050565b6000608082019050613ae3600083018761355f565b613af0602083018661340f565b613afd60408301856135aa565b8181036060830152613b0f8184613508565b905095945050505050565b6000608082019050613b2f600083018761356e565b613b3c602083018661340f565b613b49604083018561340f565b8181036060830152613b5b8184613508565b905095945050505050565b6000608082019050613b7b600083018761356e565b613b88602083018661340f565b613b9560408301856135aa565b8181036060830152613ba78184613508565b905095945050505050565b6000604082019050613bc7600083018561357d565b613bd46020830184613541565b9392505050565b6000602082019050613bf060008301846135aa565b92915050565b60006020820190508181036000830152613c0f8161362b565b9050919050565b60006020820190508181036000830152613c2f8161364e565b9050919050565b60006020820190508181036000830152613c4f81613671565b9050919050565b60006020820190508181036000830152613c6f81613694565b9050919050565b60006020820190508181036000830152613c8f816136da565b9050919050565b60006020820190508181036000830152613caf816136fd565b9050919050565b60006020820190508181036000830152613ccf81613720565b9050919050565b60006020820190508181036000830152613cef81613743565b9050919050565b60006020820190508181036000830152613d0f81613766565b9050919050565b6000606082019050613d2b60008301866138dc565b613d38602083018561340f565b613d4560408301846135aa565b949350505050565b6000606082019050613d6260008301866138dc565b8181036020830152613d7481856135f2565b90508181036040830152613d8881846135f2565b9050949350505050565b6000608082019050613da760008301876138dc565b613db460208301866138dc565b8181036040830152613dc681856135f2565b9050613dd560608301846138dc565b95945050505050565b6000613de8613df9565b9050613df4828261425f565b919050565b6000604051905090565b600067ffffffffffffffff821115613e1e57613e1d614337565b5b613e2782614366565b9050602081019050919050565b600067ffffffffffffffff821115613e4f57613e4e614337565b5b613e5882614366565b9050602081019050919050565b6000819050602082019050919050565b6000819050602082019050919050565b600081519050919050565b600081519050919050565b600081519050919050565b600081519050919050565b6000602082019050919050565b6000602082019050919050565b600082825260208201905092915050565b600082825260208201905092915050565b600082825260208201905092915050565b600082825260208201905092915050565b600082825260208201905092915050565b6000613f2b82614100565b9150613f3683614100565b9250816b7fffffffffffffffffffffff03831360008312151615613f5d57613f5c6142d9565b5b817fffffffffffffffffffffffffffffffffffffffff800000000000000000000000038312600083121615613f9557613f946142d9565b5b828201905092915050565b6000613fab8261412d565b9150613fb68361412d565b9250827fffffffffffffffffffffffffffffffffffffffffffffffffffffffffffffffff03821115613feb57613fea6142d9565b5b828201905092915050565b600061400182614100565b915061400c83614100565b9250827fffffffffffffffffffffffffffffffffffffffff80000000000000000000000001821260008412151615614047576140466142d9565b5b826b7fffffffffffffffffffffff01821360008412161561406b5761406a6142d9565b5b828203905092915050565b60006140818261412d565b915061408c8361412d565b92508282101561409f5761409e6142d9565b5b828203905092915050565b60006140b58261410d565b9050919050565b60006140c78261410d565b9050919050565b60008115159050919050565b6000819050919050565b60006140ef826140aa565b9050919050565b6000819050919050565b600081600b0b9050919050565b600073ffffffffffffffffffffffffffffffffffffffff82169050919050565b6000819050919050565b600061414282614149565b9050919050565b60006141548261410d565b9050919050565b60006141668261416d565b9050919050565b60006141788261410d565b9050919050565b600061418a82614191565b9050919050565b600061419c8261410d565b9050919050565b60006141ae826141b5565b9050919050565b60006141c08261410d565b9050919050565b60006141d2826141d9565b9050919050565b60006141e48261410d565b9050919050565b82818337600083830152505050565b60005b838110156142185780820151818401526020810190506141fd565b83811115614227576000848401525b50505050565b6000600282049050600182168061424557607f821691505b6020821081141561425957614258614308565b5b50919050565b61426882614366565b810181811067ffffffffffffffff8211171561428757614286614337565b5b80604052505050565b600061429b8261412d565b91507fffffffffffffffffffffffffffffffffffffffffffffffffffffffffffffffff8214156142ce576142cd6142d9565b5b600182019050919050565b7f4e487b7100000000000000000000000000000000000000000000000000000000600052601160045260246000fd5b7f4e487b7100000000000000000000000000000000000000000000000000000000600052602260045260246000fd5b7f4e487b7100000000000000000000000000000000000000000000000000000000600052604160045260246000fd5b6000601f19601f8301169050919050565b7f5265646972656374416c6c3a206f6e6c7920434641763120737570706f72746560008201527f6400000000000000000000000000000000000000000000000000000000000000602082015250565b7f5265646972656374416c6c3a206e6f7420616363657074656420746f6b656e00600082015250565b7f556e737570706f727465642063616c6c6261636b202d20204265666f7265204160008201527f677265656d656e74205465726d696e6174656400000000000000000000000000602082015250565b7f5265646972656374416c6c3a20737570706f7274206f6e6c79206f6e6520686f60008201527f7374000000000000000000000000000000000000000000000000000000000000602082015250565b7f3078000000000000000000000000000000000000000000000000000000000000600082015250565b7f4e6577207265636569766572206973207a65726f206164647265737300000000600082015250565b7f43616e6e6f74207570766f74652074686520616e737765722074776963652100600082015250565b7f4e65772072656365697665722063616e206e6f7420626520612073757065724160008201527f7070000000000000000000000000000000000000000000000000000000000000602082015250565b7f556e737570706f727465642063616c6c6261636b202d204265666f726520416760008201527f7265656d656e7420757064617465640000000000000000000000000000000000602082015250565b7f556e737570706f727465642063616c6c6261636b202d204265666f726520416760008201527f7265656d656e7420437265617465640000000000000000000000000000000000602082015250565b6145fe816140aa565b811461460957600080fd5b50565b614615816140ce565b811461462057600080fd5b50565b61462c816140da565b811461463757600080fd5b50565b614643816140e4565b811461464e57600080fd5b50565b61465a81614100565b811461466557600080fd5b50565b6146718161412d565b811461467c57600080fd5b5056fea2646970667358221220e71165169ac4fb16d63fe2db83ebadc3beec959d072b0a1732b7ec9a3ae02bc564736f6c63430008040033",
  "linkReferences": {},
  "deployedLinkReferences": {}
}